{
  "_format": "hh-sol-artifact-1",
  "contractName": "MCNFT",
  "sourceName": "contracts/tokens/Mediacoin.sol",
  "abi": [
    {
      "inputs": [
        {
          "internalType": "string",
          "name": "name",
          "type": "string"
        },
        {
          "internalType": "string",
          "name": "symbol",
          "type": "string"
        },
        {
          "internalType": "string",
          "name": "baseTokenURI",
          "type": "string"
        }
      ],
      "stateMutability": "nonpayable",
      "type": "constructor"
    },
    {
      "anonymous": false,
      "inputs": [
        {
          "indexed": true,
          "internalType": "address",
          "name": "owner",
          "type": "address"
        },
        {
          "indexed": true,
          "internalType": "address",
          "name": "approved",
          "type": "address"
        },
        {
          "indexed": true,
          "internalType": "uint256",
          "name": "tokenId",
          "type": "uint256"
        }
      ],
      "name": "Approval",
      "type": "event"
    },
    {
      "anonymous": false,
      "inputs": [
        {
          "indexed": true,
          "internalType": "address",
          "name": "owner",
          "type": "address"
        },
        {
          "indexed": true,
          "internalType": "address",
          "name": "operator",
          "type": "address"
        },
        {
          "indexed": false,
          "internalType": "bool",
          "name": "approved",
          "type": "bool"
        }
      ],
      "name": "ApprovalForAll",
      "type": "event"
    },
    {
      "anonymous": false,
      "inputs": [
        {
          "indexed": false,
          "internalType": "address",
          "name": "",
          "type": "address"
        },
        {
          "indexed": false,
          "internalType": "address",
          "name": "",
          "type": "address"
        },
        {
          "indexed": false,
          "internalType": "uint256",
          "name": "",
          "type": "uint256"
        }
      ],
      "name": "NewTokenMinted",
      "type": "event"
    },
    {
      "anonymous": false,
      "inputs": [
        {
          "indexed": true,
          "internalType": "bytes32",
          "name": "role",
          "type": "bytes32"
        },
        {
          "indexed": true,
          "internalType": "bytes32",
          "name": "previousAdminRole",
          "type": "bytes32"
        },
        {
          "indexed": true,
          "internalType": "bytes32",
          "name": "newAdminRole",
          "type": "bytes32"
        }
      ],
      "name": "RoleAdminChanged",
      "type": "event"
    },
    {
      "anonymous": false,
      "inputs": [
        {
          "indexed": true,
          "internalType": "bytes32",
          "name": "role",
          "type": "bytes32"
        },
        {
          "indexed": true,
          "internalType": "address",
          "name": "account",
          "type": "address"
        },
        {
          "indexed": true,
          "internalType": "address",
          "name": "sender",
          "type": "address"
        }
      ],
      "name": "RoleGranted",
      "type": "event"
    },
    {
      "anonymous": false,
      "inputs": [
        {
          "indexed": true,
          "internalType": "bytes32",
          "name": "role",
          "type": "bytes32"
        },
        {
          "indexed": true,
          "internalType": "address",
          "name": "account",
          "type": "address"
        },
        {
          "indexed": true,
          "internalType": "address",
          "name": "sender",
          "type": "address"
        }
      ],
      "name": "RoleRevoked",
      "type": "event"
    },
    {
      "anonymous": false,
      "inputs": [
        {
          "indexed": true,
          "internalType": "address",
          "name": "from",
          "type": "address"
        },
        {
          "indexed": true,
          "internalType": "address",
          "name": "to",
          "type": "address"
        },
        {
          "indexed": true,
          "internalType": "uint256",
          "name": "tokenId",
          "type": "uint256"
        }
      ],
      "name": "Transfer",
      "type": "event"
    },
    {
      "inputs": [],
      "name": "DEFAULT_ADMIN_ROLE",
      "outputs": [
        {
          "internalType": "bytes32",
          "name": "",
          "type": "bytes32"
        }
      ],
      "stateMutability": "view",
      "type": "function"
    },
    {
      "inputs": [],
      "name": "MINTER_ROLE",
      "outputs": [
        {
          "internalType": "bytes32",
          "name": "",
          "type": "bytes32"
        }
      ],
      "stateMutability": "view",
      "type": "function"
    },
    {
      "inputs": [
        {
          "internalType": "address",
          "name": "to",
          "type": "address"
        },
        {
          "internalType": "uint256",
          "name": "tokenId",
          "type": "uint256"
        }
      ],
      "name": "approve",
      "outputs": [],
      "stateMutability": "nonpayable",
      "type": "function"
    },
    {
      "inputs": [
        {
          "internalType": "address",
          "name": "owner",
          "type": "address"
        }
      ],
      "name": "balanceOf",
      "outputs": [
        {
          "internalType": "uint256",
          "name": "",
          "type": "uint256"
        }
      ],
      "stateMutability": "view",
      "type": "function"
    },
    {
      "inputs": [
        {
          "internalType": "uint256",
          "name": "tokenId",
          "type": "uint256"
        }
      ],
      "name": "burn",
      "outputs": [],
      "stateMutability": "nonpayable",
      "type": "function"
    },
    {
      "inputs": [
        {
          "internalType": "uint256",
          "name": "",
          "type": "uint256"
        }
      ],
      "name": "collaborationMembersCount",
      "outputs": [
        {
          "internalType": "uint256",
          "name": "",
          "type": "uint256"
        }
      ],
      "stateMutability": "view",
      "type": "function"
    },
    {
      "inputs": [
        {
          "internalType": "uint256",
          "name": "",
          "type": "uint256"
        },
        {
          "internalType": "uint256",
          "name": "",
          "type": "uint256"
        }
      ],
      "name": "collaborations",
      "outputs": [
        {
          "internalType": "address payable",
          "name": "collaboratorAddress",
          "type": "address"
        },
        {
          "internalType": "uint256",
          "name": "percent",
          "type": "uint256"
        }
      ],
      "stateMutability": "view",
      "type": "function"
    },
    {
      "inputs": [
        {
          "internalType": "uint256",
          "name": "",
          "type": "uint256"
        }
      ],
      "name": "data",
      "outputs": [
        {
          "internalType": "bytes",
          "name": "",
          "type": "bytes"
        }
      ],
      "stateMutability": "view",
      "type": "function"
    },
    {
      "inputs": [
        {
          "internalType": "uint256",
          "name": "tokenId",
          "type": "uint256"
        }
      ],
      "name": "getApproved",
      "outputs": [
        {
          "internalType": "address",
          "name": "",
          "type": "address"
        }
      ],
      "stateMutability": "view",
      "type": "function"
    },
    {
      "inputs": [
        {
          "internalType": "bytes32",
          "name": "role",
          "type": "bytes32"
        }
      ],
      "name": "getRoleAdmin",
      "outputs": [
        {
          "internalType": "bytes32",
          "name": "",
          "type": "bytes32"
        }
      ],
      "stateMutability": "view",
      "type": "function"
    },
    {
      "inputs": [
        {
          "internalType": "bytes32",
          "name": "role",
          "type": "bytes32"
        },
        {
          "internalType": "uint256",
          "name": "index",
          "type": "uint256"
        }
      ],
      "name": "getRoleMember",
      "outputs": [
        {
          "internalType": "address",
          "name": "",
          "type": "address"
        }
      ],
      "stateMutability": "view",
      "type": "function"
    },
    {
      "inputs": [
        {
          "internalType": "bytes32",
          "name": "role",
          "type": "bytes32"
        }
      ],
      "name": "getRoleMemberCount",
      "outputs": [
        {
          "internalType": "uint256",
          "name": "",
          "type": "uint256"
        }
      ],
      "stateMutability": "view",
      "type": "function"
    },
    {
      "inputs": [
        {
          "internalType": "uint256",
          "name": "_tokenId",
          "type": "uint256"
        }
      ],
      "name": "getcollaborationMembers",
      "outputs": [
        {
          "components": [
            {
              "internalType": "address payable",
              "name": "collaboratorAddress",
              "type": "address"
            },
            {
              "internalType": "uint256",
              "name": "percent",
              "type": "uint256"
            }
          ],
          "internalType": "struct MCNFT.CollaborateItem[]",
          "name": "",
          "type": "tuple[]"
        }
      ],
      "stateMutability": "view",
      "type": "function"
    },
    {
      "inputs": [
        {
          "internalType": "bytes32",
          "name": "role",
          "type": "bytes32"
        },
        {
          "internalType": "address",
          "name": "account",
          "type": "address"
        }
      ],
      "name": "grantRole",
      "outputs": [],
      "stateMutability": "nonpayable",
      "type": "function"
    },
    {
      "inputs": [
        {
          "internalType": "bytes32",
          "name": "role",
          "type": "bytes32"
        },
        {
          "internalType": "address",
          "name": "account",
          "type": "address"
        }
      ],
      "name": "hasRole",
      "outputs": [
        {
          "internalType": "bool",
          "name": "",
          "type": "bool"
        }
      ],
      "stateMutability": "view",
      "type": "function"
    },
    {
      "inputs": [
        {
          "internalType": "address",
          "name": "owner",
          "type": "address"
        },
        {
          "internalType": "address",
          "name": "operator",
          "type": "address"
        }
      ],
      "name": "isApprovedForAll",
      "outputs": [
        {
          "internalType": "bool",
          "name": "",
          "type": "bool"
        }
      ],
      "stateMutability": "view",
      "type": "function"
    },
    {
      "inputs": [
        {
          "internalType": "uint256",
          "name": "",
          "type": "uint256"
        }
      ],
      "name": "isCollaboration",
      "outputs": [
        {
          "internalType": "bool",
          "name": "",
          "type": "bool"
        }
      ],
      "stateMutability": "view",
      "type": "function"
    },
    {
      "inputs": [
        {
          "internalType": "address",
          "name": "to",
          "type": "address"
        },
        {
          "internalType": "uint256",
          "name": "_tokenId",
          "type": "uint256"
        }
      ],
      "name": "mint",
      "outputs": [
        {
          "internalType": "uint256",
          "name": "",
          "type": "uint256"
        }
      ],
      "stateMutability": "nonpayable",
      "type": "function"
    },
    {
      "inputs": [
        {
          "internalType": "address",
          "name": "_to",
          "type": "address"
        },
        {
          "components": [
            {
              "internalType": "address payable",
              "name": "collaboratorAddress",
              "type": "address"
            },
            {
              "internalType": "uint256",
              "name": "percent",
              "type": "uint256"
            }
          ],
          "internalType": "struct MCNFT.CollaborateItem[]",
          "name": "members",
          "type": "tuple[]"
        },
        {
          "internalType": "bytes",
          "name": "_data",
          "type": "bytes"
        }
      ],
      "name": "mintCollaboration",
      "outputs": [],
      "stateMutability": "nonpayable",
      "type": "function"
    },
    {
      "inputs": [],
      "name": "name",
      "outputs": [
        {
          "internalType": "string",
          "name": "",
          "type": "string"
        }
      ],
      "stateMutability": "view",
      "type": "function"
    },
    {
      "inputs": [
        {
          "internalType": "uint256",
          "name": "tokenId",
          "type": "uint256"
        }
      ],
      "name": "ownerOf",
      "outputs": [
        {
          "internalType": "address",
          "name": "",
          "type": "address"
        }
      ],
      "stateMutability": "view",
      "type": "function"
    },
    {
      "inputs": [
        {
          "internalType": "bytes32",
          "name": "role",
          "type": "bytes32"
        },
        {
          "internalType": "address",
          "name": "account",
          "type": "address"
        }
      ],
      "name": "renounceRole",
      "outputs": [],
      "stateMutability": "nonpayable",
      "type": "function"
    },
    {
      "inputs": [
        {
          "internalType": "bytes32",
          "name": "role",
          "type": "bytes32"
        },
        {
          "internalType": "address",
          "name": "account",
          "type": "address"
        }
      ],
      "name": "revokeRole",
      "outputs": [],
      "stateMutability": "nonpayable",
      "type": "function"
    },
    {
      "inputs": [
        {
          "internalType": "address",
          "name": "from",
          "type": "address"
        },
        {
          "internalType": "address",
          "name": "to",
          "type": "address"
        },
        {
          "internalType": "uint256",
          "name": "tokenId",
          "type": "uint256"
        }
      ],
      "name": "safeTransferFrom",
      "outputs": [],
      "stateMutability": "nonpayable",
      "type": "function"
    },
    {
      "inputs": [
        {
          "internalType": "address",
          "name": "from",
          "type": "address"
        },
        {
          "internalType": "address",
          "name": "to",
          "type": "address"
        },
        {
          "internalType": "uint256",
          "name": "tokenId",
          "type": "uint256"
        },
        {
          "internalType": "bytes",
          "name": "_data",
          "type": "bytes"
        }
      ],
      "name": "safeTransferFrom",
      "outputs": [],
      "stateMutability": "nonpayable",
      "type": "function"
    },
    {
      "inputs": [
        {
          "internalType": "address",
          "name": "operator",
          "type": "address"
        },
        {
          "internalType": "bool",
          "name": "approved",
          "type": "bool"
        }
      ],
      "name": "setApprovalForAll",
      "outputs": [],
      "stateMutability": "nonpayable",
      "type": "function"
    },
    {
      "inputs": [
        {
          "internalType": "bytes4",
          "name": "interfaceId",
          "type": "bytes4"
        }
      ],
      "name": "supportsInterface",
      "outputs": [
        {
          "internalType": "bool",
          "name": "",
          "type": "bool"
        }
      ],
      "stateMutability": "view",
      "type": "function"
    },
    {
      "inputs": [],
      "name": "symbol",
      "outputs": [
        {
          "internalType": "string",
          "name": "",
          "type": "string"
        }
      ],
      "stateMutability": "view",
      "type": "function"
    },
    {
      "inputs": [
        {
          "internalType": "uint256",
          "name": "index",
          "type": "uint256"
        }
      ],
      "name": "tokenByIndex",
      "outputs": [
        {
          "internalType": "uint256",
          "name": "",
          "type": "uint256"
        }
      ],
      "stateMutability": "view",
      "type": "function"
    },
    {
      "inputs": [
        {
          "internalType": "address",
          "name": "owner",
          "type": "address"
        },
        {
          "internalType": "uint256",
          "name": "index",
          "type": "uint256"
        }
      ],
      "name": "tokenOfOwnerByIndex",
      "outputs": [
        {
          "internalType": "uint256",
          "name": "",
          "type": "uint256"
        }
      ],
      "stateMutability": "view",
      "type": "function"
    },
    {
      "inputs": [
        {
          "internalType": "uint256",
          "name": "tokenId",
          "type": "uint256"
        }
      ],
      "name": "tokenURI",
      "outputs": [
        {
          "internalType": "string",
          "name": "",
          "type": "string"
        }
      ],
      "stateMutability": "view",
      "type": "function"
    },
    {
      "inputs": [],
      "name": "totalSupply",
      "outputs": [
        {
          "internalType": "uint256",
          "name": "",
          "type": "uint256"
        }
      ],
      "stateMutability": "view",
      "type": "function"
    },
    {
      "inputs": [
        {
          "internalType": "address",
          "name": "from",
          "type": "address"
        },
        {
          "internalType": "address",
          "name": "to",
          "type": "address"
        },
        {
          "internalType": "uint256",
          "name": "tokenId",
          "type": "uint256"
        }
      ],
      "name": "transferFrom",
      "outputs": [],
      "stateMutability": "nonpayable",
      "type": "function"
    }
  ],
  "bytecode": "0x60806040523480156200001157600080fd5b5060405162002f0038038062002f0083398101604081905262000034916200037c565b8251839083906200004d90600290602085019062000223565b5080516200006390600390602084019062000223565b505081516200007b9150600d90602084019062000223565b5062000089600033620000be565b620000b57f9f2df0fed2c77648de5860a4cc508cd0818c85b8b8a1ab4ceeef8d981c8956a633620000be565b5050506200045c565b620000ca8282620000ce565b5050565b620000e582826200011160201b620011a01760201c565b60008281526001602090815260409091206200010c91839062001224620001b1821b17901c565b505050565b6000828152602081815260408083206001600160a01b038516845290915290205460ff16620000ca576000828152602081815260408083206001600160a01b03851684529091529020805460ff191660011790556200016d3390565b6001600160a01b0316816001600160a01b0316837f2f8788117e7eff1d82e926ec794901d17c78024a50270940304540a733656f0d60405160405180910390a45050565b6000620001c8836001600160a01b038416620001d1565b90505b92915050565b60008181526001830160205260408120546200021a57508154600181810184556000848152602080822090930184905584548482528286019093526040902091909155620001cb565b506000620001cb565b828054620002319062000409565b90600052602060002090601f016020900481019282620002555760008555620002a0565b82601f106200027057805160ff1916838001178555620002a0565b82800160010185558215620002a0579182015b82811115620002a057825182559160200191906001019062000283565b50620002ae929150620002b2565b5090565b5b80821115620002ae5760008155600101620002b3565b600082601f830112620002da578081fd5b81516001600160401b0380821115620002f757620002f762000446565b604051601f8301601f19908116603f0116810190828211818310171562000322576200032262000446565b816040528381526020925086838588010111156200033e578485fd5b8491505b8382101562000361578582018301518183018401529082019062000342565b838211156200037257848385830101525b9695505050505050565b60008060006060848603121562000391578283fd5b83516001600160401b0380821115620003a8578485fd5b620003b687838801620002c9565b94506020860151915080821115620003cc578384fd5b620003da87838801620002c9565b93506040860151915080821115620003f0578283fd5b50620003ff86828701620002c9565b9150509250925092565b600181811c908216806200041e57607f821691505b602082108114156200044057634e487b7160e01b600052602260045260246000fd5b50919050565b634e487b7160e01b600052604160045260246000fd5b612a94806200046c6000396000f3fe608060405234801561001057600080fd5b50600436106101fb5760003560e01c80634f6ccce71161011a578063a22cb465116100ad578063d53913931161007c578063d53913931461047a578063d547741f146104a1578063e54400ff146104b4578063e985e9c5146104d4578063f0ba84401461051057600080fd5b8063a22cb4651461042e578063b88d4fde14610441578063c87b56dd14610454578063ca15c8731461046757600080fd5b80639010d07c116100e95780639010d07c146103f857806391d148541461040b57806395d89b411461041e578063a217fddf1461042657600080fd5b80634f6ccce71461039f5780636352211e146103b257806370a08231146103c557806384af6cc1146103d857600080fd5b80632de616d11161019257806337ad71f91161016157806337ad71f91461035357806340c10f191461036657806342842e0e1461037957806342966c681461038c57600080fd5b80632de616d1146102e85780632f2ff15d1461031a5780632f745c591461032d57806336568abe1461034057600080fd5b806318160ddd116101ce57806318160ddd1461027d57806323b872dd1461028f578063248a9ca3146102a25780632ab2f19a146102c557600080fd5b806301ffc9a71461020057806306fdde0314610228578063081812fc1461023d578063095ea7b314610268575b600080fd5b61021361020e366004612635565b610523565b60405190151581526020015b60405180910390f35b610230610534565b60405161021f91906127d2565b61025061024b3660046125d8565b6105c6565b6040516001600160a01b03909116815260200161021f565b61027b6102763660046125ad565b610660565b005b600a545b60405190815260200161021f565b61027b61029d3660046123c8565b610776565b6102816102b03660046125d8565b60009081526020819052604090206001015490565b6102136102d33660046125d8565b600f6020526000908152604090205460ff1681565b6102fb6102f6366004612614565b6107a8565b604080516001600160a01b03909316835260208301919091520161021f565b61027b6103283660046125f0565b6107ee565b61028161033b3660046125ad565b610814565b61027b61034e3660046125f0565b6108aa565b61027b610361366004612472565b610928565b6102816103743660046125ad565b610aec565b61027b6103873660046123c8565b610be3565b61027b61039a3660046125d8565b610bfe565b6102816103ad3660046125d8565b610c74565b6102506103c03660046125d8565b610d15565b6102816103d3366004612374565b610d8c565b6103eb6103e63660046125d8565b610e13565b60405161021f919061277a565b610250610406366004612614565b610f55565b6102136104193660046125f0565b610f74565b610230610f9d565b610281600081565b61027b61043c36600461257c565b610fac565b61027b61044f366004612408565b610fb7565b6102306104623660046125d8565b610fef565b6102816104753660046125d8565b6110c9565b6102817f9f2df0fed2c77648de5860a4cc508cd0818c85b8b8a1ab4ceeef8d981c8956a681565b61027b6104af3660046125f0565b6110e0565b6102816104c23660046125d8565b60106020526000908152604090205481565b6102136104e2366004612390565b6001600160a01b03918216600090815260076020908152604080832093909416825291909152205460ff1690565b61023061051e3660046125d8565b611106565b600061052e82611239565b92915050565b60606002805461054390612987565b80601f016020809104026020016040519081016040528092919081815260200182805461056f90612987565b80156105bc5780601f10610591576101008083540402835291602001916105bc565b820191906000526020600020905b81548152906001019060200180831161059f57829003601f168201915b5050505050905090565b6000818152600460205260408120546001600160a01b03166106445760405162461bcd60e51b815260206004820152602c60248201527f4552433732313a20617070726f76656420717565727920666f72206e6f6e657860448201526b34b9ba32b73a103a37b5b2b760a11b60648201526084015b60405180910390fd5b506000908152600660205260409020546001600160a01b031690565b600061066b82610d15565b9050806001600160a01b0316836001600160a01b031614156106d95760405162461bcd60e51b815260206004820152602160248201527f4552433732313a20617070726f76616c20746f2063757272656e74206f776e656044820152603960f91b606482015260840161063b565b336001600160a01b03821614806106f557506106f581336104e2565b6107675760405162461bcd60e51b815260206004820152603860248201527f4552433732313a20617070726f76652063616c6c6572206973206e6f74206f7760448201527f6e6572206e6f7220617070726f76656420666f7220616c6c0000000000000000606482015260840161063b565b610771838361125e565b505050565b610781335b826112cc565b61079d5760405162461bcd60e51b815260040161063b90612837565b6107718383836113c3565b600e60205281600052604060002081815481106107c457600080fd5b6000918252602090912060029091020180546001909101546001600160a01b039091169250905082565b60008281526020819052604090206001015461080a813361156e565b61077183836115d2565b600061081f83610d8c565b82106108815760405162461bcd60e51b815260206004820152602b60248201527f455243373231456e756d657261626c653a206f776e657220696e646578206f7560448201526a74206f6620626f756e647360a81b606482015260840161063b565b506001600160a01b03919091166000908152600860209081526040808320938352929052205490565b6001600160a01b038116331461091a5760405162461bcd60e51b815260206004820152602f60248201527f416363657373436f6e74726f6c3a2063616e206f6e6c792072656e6f756e636560448201526e103937b632b9903337b91039b2b63360891b606482015260840161063b565b61092482826115f4565b5050565b6009825111156109975760405162461bcd60e51b815260206004820152603460248201527f4d65646961636f696e3a203130206d656d6265727320696e206120636f6c6c616044820152733137b930ba34b7b71034b99036b0bc34b6bab69760611b606482015260840161063b565b60006109a2600c5490565b90506109ae8482611616565b6109bc600c80546001019055565b600081815260126020908152604090912083516109db92850190612270565b506000818152600f60209081526040808320805460ff19166001179055855160109092528220555b8351811015610ae557600e60008381526020019081526020016000206040518060400160405280868481518110610a4a57634e487b7160e01b600052603260045260246000fd5b6020026020010151600001516001600160a01b03168152602001868481518110610a8457634e487b7160e01b600052603260045260246000fd5b602090810291909101810151810151909152825460018082018555600094855293829020835160029092020180546001600160a01b0319166001600160a01b0390921691909117815591015191015580610add816129c2565b915050610a03565b5050505050565b6000610b187f9f2df0fed2c77648de5860a4cc508cd0818c85b8b8a1ab4ceeef8d981c8956a633610f74565b610b8a5760405162461bcd60e51b815260206004820152603d60248201527f4552433732315072657365744d696e7465725061757365724175746f49643a2060448201527f6d7573742068617665206d696e74657220726f6c6520746f206d696e74000000606482015260840161063b565b610b948383611616565b604080513381526001600160a01b03851660208201529081018390527fa7858f64952d81c7b14a732888dab79084797368151971501979a9a225b2efec9060600160405180910390a150919050565b61077183838360405180602001604052806000815250610fb7565b610c073361077b565b610c685760405162461bcd60e51b815260206004820152602c60248201527f4d65646961636f696e3a2063616c6c6572206973206e6f74206f776e6572206e60448201526b37b91030b8383937bb32b21760a11b606482015260840161063b565b610c7181611764565b50565b6000610c7f600a5490565b8210610ce25760405162461bcd60e51b815260206004820152602c60248201527f455243373231456e756d657261626c653a20676c6f62616c20696e646578206f60448201526b7574206f6620626f756e647360a01b606482015260840161063b565b600a8281548110610d0357634e487b7160e01b600052603260045260246000fd5b90600052602060002001549050919050565b6000818152600460205260408120546001600160a01b03168061052e5760405162461bcd60e51b815260206004820152602960248201527f4552433732313a206f776e657220717565727920666f72206e6f6e657869737460448201526832b73a103a37b5b2b760b91b606482015260840161063b565b60006001600160a01b038216610df75760405162461bcd60e51b815260206004820152602a60248201527f4552433732313a2062616c616e636520717565727920666f7220746865207a65604482015269726f206164647265737360b01b606482015260840161063b565b506001600160a01b031660009081526005602052604090205490565b6000818152600e60205260408120546060919067ffffffffffffffff811115610e4c57634e487b7160e01b600052604160045260246000fd5b604051908082528060200260200182016040528015610e9157816020015b6040805180820190915260008082526020820152815260200190600190039081610e6a5790505b50905060005b6000848152600e6020526040902054811015610f4e576000848152600e60205260409020805482908110610edb57634e487b7160e01b600052603260045260246000fd5b60009182526020918290206040805180820190915260029092020180546001600160a01b0316825260010154918101919091528251839083908110610f3057634e487b7160e01b600052603260045260246000fd5b60200260200101819052508080610f46906129c2565b915050610e97565b5092915050565b6000828152600160205260408120610f6d908361180b565b9392505050565b6000918252602082815260408084206001600160a01b0393909316845291905290205460ff1690565b60606003805461054390612987565b610924338383611817565b610fc133836112cc565b610fdd5760405162461bcd60e51b815260040161063b90612837565b610fe9848484846118e6565b50505050565b6000818152600460205260409020546060906001600160a01b031661106e5760405162461bcd60e51b815260206004820152602f60248201527f4552433732314d657461646174613a2055524920717565727920666f72206e6f60448201526e3732bc34b9ba32b73a103a37b5b2b760891b606482015260840161063b565b6000611078611919565b905060008151116110985760405180602001604052806000815250610f6d565b806110a284611928565b6040516020016110b3929190612699565b6040516020818303038152906040529392505050565b600081815260016020526040812061052e90611a42565b6000828152602081905260409020600101546110fc813361156e565b61077183836115f4565b6012602052600090815260409020805461111f90612987565b80601f016020809104026020016040519081016040528092919081815260200182805461114b90612987565b80156111985780601f1061116d57610100808354040283529160200191611198565b820191906000526020600020905b81548152906001019060200180831161117b57829003601f168201915b505050505081565b6111aa8282610f74565b610924576000828152602081815260408083206001600160a01b03851684529091529020805460ff191660011790556111e03390565b6001600160a01b0316816001600160a01b0316837f2f8788117e7eff1d82e926ec794901d17c78024a50270940304540a733656f0d60405160405180910390a45050565b6000610f6d836001600160a01b038416611a4c565b60006001600160e01b0319821663780e9d6360e01b148061052e575061052e82611a9b565b600081815260066020526040902080546001600160a01b0319166001600160a01b038416908117909155819061129382610d15565b6001600160a01b03167f8c5be1e5ebec7d5bd14f71427d1e84f3dd0314c0f7b2291e5b200ac8c7c3b92560405160405180910390a45050565b6000818152600460205260408120546001600160a01b03166113455760405162461bcd60e51b815260206004820152602c60248201527f4552433732313a206f70657261746f7220717565727920666f72206e6f6e657860448201526b34b9ba32b73a103a37b5b2b760a11b606482015260840161063b565b600061135083610d15565b9050806001600160a01b0316846001600160a01b0316148061138b5750836001600160a01b0316611380846105c6565b6001600160a01b0316145b806113bb57506001600160a01b0380821660009081526007602090815260408083209388168352929052205460ff165b949350505050565b826001600160a01b03166113d682610d15565b6001600160a01b03161461143e5760405162461bcd60e51b815260206004820152602960248201527f4552433732313a207472616e73666572206f6620746f6b656e2074686174206960448201526839903737ba1037bbb760b91b606482015260840161063b565b6001600160a01b0382166114a05760405162461bcd60e51b8152602060048201526024808201527f4552433732313a207472616e7366657220746f20746865207a65726f206164646044820152637265737360e01b606482015260840161063b565b6114ab838383611adb565b6114b660008261125e565b6001600160a01b03831660009081526005602052604081208054600192906114df90849061292d565b90915550506001600160a01b038216600090815260056020526040812080546001929061150d9084906128e2565b909155505060008181526004602052604080822080546001600160a01b0319166001600160a01b0386811691821790925591518493918716917fddf252ad1be2c89b69c2b068fc378daa952ba7f163c4a11628f55a4df523b3ef91a4505050565b6115788282610f74565b61092457611590816001600160a01b03166014611ae6565b61159b836020611ae6565b6040516020016115ac9291906126c8565b60408051601f198184030181529082905262461bcd60e51b825261063b916004016127d2565b6115dc82826111a0565b60008281526001602052604090206107719082611224565b6115fe8282611cc8565b60008281526001602052604090206107719082611d2d565b6001600160a01b03821661166c5760405162461bcd60e51b815260206004820181905260248201527f4552433732313a206d696e7420746f20746865207a65726f2061646472657373604482015260640161063b565b6000818152600460205260409020546001600160a01b0316156116d15760405162461bcd60e51b815260206004820152601c60248201527f4552433732313a20746f6b656e20616c7265616479206d696e74656400000000604482015260640161063b565b6116dd60008383611adb565b6001600160a01b03821660009081526005602052604081208054600192906117069084906128e2565b909155505060008181526004602052604080822080546001600160a01b0319166001600160a01b03861690811790915590518392907fddf252ad1be2c89b69c2b068fc378daa952ba7f163c4a11628f55a4df523b3ef908290a45050565b600061176f82610d15565b905061177d81600084611adb565b61178860008361125e565b6001600160a01b03811660009081526005602052604081208054600192906117b190849061292d565b909155505060008281526004602052604080822080546001600160a01b0319169055518391906001600160a01b038416907fddf252ad1be2c89b69c2b068fc378daa952ba7f163c4a11628f55a4df523b3ef908390a45050565b6000610f6d8383611d42565b816001600160a01b0316836001600160a01b031614156118795760405162461bcd60e51b815260206004820152601960248201527f4552433732313a20617070726f766520746f2063616c6c657200000000000000604482015260640161063b565b6001600160a01b03838116600081815260076020908152604080832094871680845294825291829020805460ff191686151590811790915591519182527f17307eab39ab6107e8899845ad3d59bd9653f200f220920489ca2b5937696c31910160405180910390a3505050565b6118f18484846113c3565b6118fd84848484611d7a565b610fe95760405162461bcd60e51b815260040161063b906127e5565b6060600d805461054390612987565b60608161194c5750506040805180820190915260018152600360fc1b602082015290565b8160005b81156119765780611960816129c2565b915061196f9050600a836128fa565b9150611950565b60008167ffffffffffffffff81111561199f57634e487b7160e01b600052604160045260246000fd5b6040519080825280601f01601f1916602001820160405280156119c9576020820181803683370190505b5090505b84156113bb576119de60018361292d565b91506119eb600a866129dd565b6119f69060306128e2565b60f81b818381518110611a1957634e487b7160e01b600052603260045260246000fd5b60200101906001600160f81b031916908160001a905350611a3b600a866128fa565b94506119cd565b600061052e825490565b6000818152600183016020526040812054611a935750815460018181018455600084815260208082209093018490558454848252828601909352604090209190915561052e565b50600061052e565b60006001600160e01b031982166380ac58cd60e01b1480611acc57506001600160e01b03198216635b5e139f60e01b145b8061052e575061052e82611e87565b610771838383611eac565b60606000611af583600261290e565b611b009060026128e2565b67ffffffffffffffff811115611b2657634e487b7160e01b600052604160045260246000fd5b6040519080825280601f01601f191660200182016040528015611b50576020820181803683370190505b509050600360fc1b81600081518110611b7957634e487b7160e01b600052603260045260246000fd5b60200101906001600160f81b031916908160001a905350600f60fb1b81600181518110611bb657634e487b7160e01b600052603260045260246000fd5b60200101906001600160f81b031916908160001a9053506000611bda84600261290e565b611be59060016128e2565b90505b6001811115611c79576f181899199a1a9b1b9c1cb0b131b232b360811b85600f1660108110611c2757634e487b7160e01b600052603260045260246000fd5b1a60f81b828281518110611c4b57634e487b7160e01b600052603260045260246000fd5b60200101906001600160f81b031916908160001a90535060049490941c93611c7281612970565b9050611be8565b508315610f6d5760405162461bcd60e51b815260206004820181905260248201527f537472696e67733a20686578206c656e67746820696e73756666696369656e74604482015260640161063b565b611cd28282610f74565b15610924576000828152602081815260408083206001600160a01b0385168085529252808320805460ff1916905551339285917ff6391f5c32d9c69d2a47ea670b442974b53935d1edc7fd64eb21e047a839171b9190a45050565b6000610f6d836001600160a01b038416611f64565b6000826000018281548110611d6757634e487b7160e01b600052603260045260246000fd5b9060005260206000200154905092915050565b60006001600160a01b0384163b15611e7c57604051630a85bd0160e11b81526001600160a01b0385169063150b7a0290611dbe90339089908890889060040161273d565b602060405180830381600087803b158015611dd857600080fd5b505af1925050508015611e08575060408051601f3d908101601f19168201909252611e0591810190612651565b60015b611e62573d808015611e36576040519150601f19603f3d011682016040523d82523d6000602084013e611e3b565b606091505b508051611e5a5760405162461bcd60e51b815260040161063b906127e5565b805181602001fd5b6001600160e01b031916630a85bd0160e11b1490506113bb565b506001949350505050565b60006001600160e01b03198216635a05180f60e01b148061052e575061052e82612081565b6001600160a01b038316611f0757611f0281600a80546000838152600b60205260408120829055600182018355919091527fc65a7bb8d6351c1cf70c95a316cc6a92839c986682d98bc35f958f4883f9d2a80155565b611f2a565b816001600160a01b0316836001600160a01b031614611f2a57611f2a83826120b6565b6001600160a01b038216611f415761077181612153565b826001600160a01b0316826001600160a01b03161461077157610771828261222c565b60008181526001830160205260408120548015612077576000611f8860018361292d565b8554909150600090611f9c9060019061292d565b905081811461201d576000866000018281548110611fca57634e487b7160e01b600052603260045260246000fd5b9060005260206000200154905080876000018481548110611ffb57634e487b7160e01b600052603260045260246000fd5b6000918252602080832090910192909255918252600188019052604090208390555b855486908061203c57634e487b7160e01b600052603160045260246000fd5b60019003818190600052602060002001600090559055856001016000868152602001908152602001600020600090556001935050505061052e565b600091505061052e565b60006001600160e01b03198216637965db0b60e01b148061052e57506301ffc9a760e01b6001600160e01b031983161461052e565b600060016120c384610d8c565b6120cd919061292d565b600083815260096020526040902054909150808214612120576001600160a01b03841660009081526008602090815260408083208584528252808320548484528184208190558352600990915290208190555b5060009182526009602090815260408084208490556001600160a01b039094168352600881528383209183525290812055565b600a546000906121659060019061292d565b6000838152600b6020526040812054600a805493945090928490811061219b57634e487b7160e01b600052603260045260246000fd5b9060005260206000200154905080600a83815481106121ca57634e487b7160e01b600052603260045260246000fd5b6000918252602080832090910192909255828152600b9091526040808220849055858252812055600a80548061221057634e487b7160e01b600052603160045260246000fd5b6001900381819060005260206000200160009055905550505050565b600061223783610d8c565b6001600160a01b039093166000908152600860209081526040808320868452825280832085905593825260099052919091209190915550565b82805461227c90612987565b90600052602060002090601f01602090048101928261229e57600085556122e4565b82601f106122b757805160ff19168380011785556122e4565b828001600101855582156122e4579182015b828111156122e45782518255916020019190600101906122c9565b506122f09291506122f4565b5090565b5b808211156122f057600081556001016122f5565b600082601f830112612319578081fd5b813567ffffffffffffffff81111561233357612333612a1d565b612346601f8201601f19166020016128b1565b81815284602083860101111561235a578283fd5b816020850160208301379081016020019190915292915050565b600060208284031215612385578081fd5b8135610f6d81612a33565b600080604083850312156123a2578081fd5b82356123ad81612a33565b915060208301356123bd81612a33565b809150509250929050565b6000806000606084860312156123dc578081fd5b83356123e781612a33565b925060208401356123f781612a33565b929592945050506040919091013590565b6000806000806080858703121561241d578081fd5b843561242881612a33565b9350602085013561243881612a33565b925060408501359150606085013567ffffffffffffffff81111561245a578182fd5b61246687828801612309565b91505092959194509250565b600080600060608486031215612486578283fd5b833561249181612a33565b925060208481013567ffffffffffffffff808211156124ae578485fd5b818701915087601f8301126124c1578485fd5b8135818111156124d3576124d3612a1d565b6124e1848260051b016128b1565b8082825285820191508585018b878560061b8801011115612500578889fd5b8895505b8386101561254c57604080828e03121561251c57898afd5b612524612888565b823561252f81612a33565b815282890135898201528452600196909601959287019201612504565b50965050506040870135925080831115612564578384fd5b505061257286828701612309565b9150509250925092565b6000806040838503121561258e578182fd5b823561259981612a33565b9150602083013580151581146123bd578182fd5b600080604083850312156125bf578182fd5b82356125ca81612a33565b946020939093013593505050565b6000602082840312156125e9578081fd5b5035919050565b60008060408385031215612602578182fd5b8235915060208301356123bd81612a33565b60008060408385031215612626578182fd5b50508035926020909101359150565b600060208284031215612646578081fd5b8135610f6d81612a48565b600060208284031215612662578081fd5b8151610f6d81612a48565b60008151808452612685816020860160208601612944565b601f01601f19169290920160200192915050565b600083516126ab818460208801612944565b8351908301906126bf818360208801612944565b01949350505050565b7f416363657373436f6e74726f6c3a206163636f756e7420000000000000000000815260008351612700816017850160208801612944565b7001034b99036b4b9b9b4b733903937b6329607d1b6017918401918201528351612731816028840160208801612944565b01602801949350505050565b6001600160a01b03858116825284166020820152604081018390526080606082018190526000906127709083018461266d565b9695505050505050565b602080825282518282018190526000919060409081850190868401855b828110156127c557815180516001600160a01b03168552860151868501529284019290850190600101612797565b5091979650505050505050565b602081526000610f6d602083018461266d565b60208082526032908201527f4552433732313a207472616e7366657220746f206e6f6e20455243373231526560408201527131b2b4bb32b91034b6b83632b6b2b73a32b960711b606082015260800190565b60208082526031908201527f4552433732313a207472616e736665722063616c6c6572206973206e6f74206f6040820152701ddb995c881b9bdc88185c1c1c9bdd9959607a1b606082015260800190565b6040805190810167ffffffffffffffff811182821017156128ab576128ab612a1d565b60405290565b604051601f8201601f1916810167ffffffffffffffff811182821017156128da576128da612a1d565b604052919050565b600082198211156128f5576128f56129f1565b500190565b60008261290957612909612a07565b500490565b6000816000190483118215151615612928576129286129f1565b500290565b60008282101561293f5761293f6129f1565b500390565b60005b8381101561295f578181015183820152602001612947565b83811115610fe95750506000910152565b60008161297f5761297f6129f1565b506000190190565b600181811c9082168061299b57607f821691505b602082108114156129bc57634e487b7160e01b600052602260045260246000fd5b50919050565b60006000198214156129d6576129d66129f1565b5060010190565b6000826129ec576129ec612a07565b500690565b634e487b7160e01b600052601160045260246000fd5b634e487b7160e01b600052601260045260246000fd5b634e487b7160e01b600052604160045260246000fd5b6001600160a01b0381168114610c7157600080fd5b6001600160e01b031981168114610c7157600080fdfea2646970667358221220fbd5c9aca745bcd77075ad7cc4341d2f92707e2705cfdfbba065a84a8aa1ff5964736f6c63430008040033",
  "linkReferences": {},
  "deployedLinkReferences": {}
}